{
  "contractName": "Token",
  "abi": [
    {
      "inputs": [
        {
          "internalType": "string",
          "name": "name",
          "type": "string"
        },
        {
          "internalType": "string",
          "name": "symbol",
          "type": "string"
        }
      ],
      "stateMutability": "nonpayable",
      "type": "constructor"
    },
    {
      "anonymous": false,
      "inputs": [
        {
          "indexed": true,
          "internalType": "address",
          "name": "owner",
          "type": "address"
        },
        {
          "indexed": true,
          "internalType": "address",
          "name": "approved",
          "type": "address"
        },
        {
          "indexed": true,
          "internalType": "uint256",
          "name": "tokenId",
          "type": "uint256"
        }
      ],
      "name": "Approval",
      "type": "event"
    },
    {
      "anonymous": false,
      "inputs": [
        {
          "indexed": true,
          "internalType": "address",
          "name": "owner",
          "type": "address"
        },
        {
          "indexed": true,
          "internalType": "address",
          "name": "operator",
          "type": "address"
        },
        {
          "indexed": false,
          "internalType": "bool",
          "name": "approved",
          "type": "bool"
        }
      ],
      "name": "ApprovalForAll",
      "type": "event"
    },
    {
      "anonymous": false,
      "inputs": [
        {
          "indexed": true,
          "internalType": "address",
          "name": "previousOwner",
          "type": "address"
        },
        {
          "indexed": true,
          "internalType": "address",
          "name": "newOwner",
          "type": "address"
        }
      ],
      "name": "OwnershipTransferred",
      "type": "event"
    },
    {
      "anonymous": false,
      "inputs": [
        {
          "indexed": true,
          "internalType": "address",
          "name": "from",
          "type": "address"
        },
        {
          "indexed": true,
          "internalType": "address",
          "name": "to",
          "type": "address"
        },
        {
          "indexed": true,
          "internalType": "uint256",
          "name": "tokenId",
          "type": "uint256"
        }
      ],
      "name": "Transfer",
      "type": "event"
    },
    {
      "inputs": [
        {
          "internalType": "address",
          "name": "to",
          "type": "address"
        },
        {
          "internalType": "uint256",
          "name": "tokenId",
          "type": "uint256"
        }
      ],
      "name": "approve",
      "outputs": [],
      "stateMutability": "nonpayable",
      "type": "function"
    },
    {
      "inputs": [
        {
          "internalType": "address",
          "name": "owner",
          "type": "address"
        }
      ],
      "name": "balanceOf",
      "outputs": [
        {
          "internalType": "uint256",
          "name": "",
          "type": "uint256"
        }
      ],
      "stateMutability": "view",
      "type": "function"
    },
    {
      "inputs": [
        {
          "internalType": "uint256",
          "name": "tokenId",
          "type": "uint256"
        }
      ],
      "name": "getApproved",
      "outputs": [
        {
          "internalType": "address",
          "name": "",
          "type": "address"
        }
      ],
      "stateMutability": "view",
      "type": "function"
    },
    {
      "inputs": [
        {
          "internalType": "address",
          "name": "owner",
          "type": "address"
        },
        {
          "internalType": "address",
          "name": "operator",
          "type": "address"
        }
      ],
      "name": "isApprovedForAll",
      "outputs": [
        {
          "internalType": "bool",
          "name": "",
          "type": "bool"
        }
      ],
      "stateMutability": "view",
      "type": "function"
    },
    {
      "inputs": [],
      "name": "name",
      "outputs": [
        {
          "internalType": "string",
          "name": "",
          "type": "string"
        }
      ],
      "stateMutability": "view",
      "type": "function"
    },
    {
      "inputs": [],
      "name": "owner",
      "outputs": [
        {
          "internalType": "address",
          "name": "",
          "type": "address"
        }
      ],
      "stateMutability": "view",
      "type": "function"
    },
    {
      "inputs": [
        {
          "internalType": "uint256",
          "name": "tokenId",
          "type": "uint256"
        }
      ],
      "name": "ownerOf",
      "outputs": [
        {
          "internalType": "address",
          "name": "",
          "type": "address"
        }
      ],
      "stateMutability": "view",
      "type": "function"
    },
    {
      "inputs": [],
      "name": "renounceOwnership",
      "outputs": [],
      "stateMutability": "nonpayable",
      "type": "function"
    },
    {
      "inputs": [
        {
          "internalType": "address",
          "name": "from",
          "type": "address"
        },
        {
          "internalType": "address",
          "name": "to",
          "type": "address"
        },
        {
          "internalType": "uint256",
          "name": "tokenId",
          "type": "uint256"
        }
      ],
      "name": "safeTransferFrom",
      "outputs": [],
      "stateMutability": "nonpayable",
      "type": "function"
    },
    {
      "inputs": [
        {
          "internalType": "address",
          "name": "from",
          "type": "address"
        },
        {
          "internalType": "address",
          "name": "to",
          "type": "address"
        },
        {
          "internalType": "uint256",
          "name": "tokenId",
          "type": "uint256"
        },
        {
          "internalType": "bytes",
          "name": "_data",
          "type": "bytes"
        }
      ],
      "name": "safeTransferFrom",
      "outputs": [],
      "stateMutability": "nonpayable",
      "type": "function"
    },
    {
      "inputs": [
        {
          "internalType": "address",
          "name": "operator",
          "type": "address"
        },
        {
          "internalType": "bool",
          "name": "approved",
          "type": "bool"
        }
      ],
      "name": "setApprovalForAll",
      "outputs": [],
      "stateMutability": "nonpayable",
      "type": "function"
    },
    {
      "inputs": [
        {
          "internalType": "bytes4",
          "name": "interfaceId",
          "type": "bytes4"
        }
      ],
      "name": "supportsInterface",
      "outputs": [
        {
          "internalType": "bool",
          "name": "",
          "type": "bool"
        }
      ],
      "stateMutability": "view",
      "type": "function"
    },
    {
      "inputs": [],
      "name": "symbol",
      "outputs": [
        {
          "internalType": "string",
          "name": "",
          "type": "string"
        }
      ],
      "stateMutability": "view",
      "type": "function"
    },
    {
      "inputs": [
        {
          "internalType": "uint256",
          "name": "tokenId",
          "type": "uint256"
        }
      ],
      "name": "tokenURI",
      "outputs": [
        {
          "internalType": "string",
          "name": "",
          "type": "string"
        }
      ],
      "stateMutability": "view",
      "type": "function"
    },
    {
      "inputs": [
        {
          "internalType": "address",
          "name": "from",
          "type": "address"
        },
        {
          "internalType": "address",
          "name": "to",
          "type": "address"
        },
        {
          "internalType": "uint256",
          "name": "tokenId",
          "type": "uint256"
        }
      ],
      "name": "transferFrom",
      "outputs": [],
      "stateMutability": "nonpayable",
      "type": "function"
    },
    {
      "inputs": [
        {
          "internalType": "address",
          "name": "newOwner",
          "type": "address"
        }
      ],
      "name": "transferOwnership",
      "outputs": [],
      "stateMutability": "nonpayable",
      "type": "function"
    },
    {
      "inputs": [
        {
          "internalType": "uint8",
          "name": "damage",
          "type": "uint8"
        },
        {
          "internalType": "uint8",
          "name": "magic",
          "type": "uint8"
        },
        {
          "internalType": "uint256",
          "name": "endurance",
          "type": "uint256"
        }
      ],
      "name": "mint",
      "outputs": [],
      "stateMutability": "nonpayable",
      "type": "function"
    },
    {
      "inputs": [
        {
          "internalType": "uint256",
          "name": "tokenId",
          "type": "uint256"
        }
      ],
      "name": "feed",
      "outputs": [],
      "stateMutability": "nonpayable",
      "type": "function"
    },
    {
      "inputs": [
        {
          "internalType": "uint256",
          "name": "tokenId",
          "type": "uint256"
        }
      ],
      "name": "getTokenDetails",
      "outputs": [
        {
          "components": [
            {
              "internalType": "uint8",
              "name": "damage",
              "type": "uint8"
            },
            {
              "internalType": "uint8",
              "name": "magic",
              "type": "uint8"
            },
            {
              "internalType": "uint256",
              "name": "lastMeal",
              "type": "uint256"
            },
            {
              "internalType": "uint256",
              "name": "endurance",
              "type": "uint256"
            }
          ],
          "internalType": "struct Token.Pet",
          "name": "",
          "type": "tuple"
        }
      ],
      "stateMutability": "view",
      "type": "function"
    },
    {
      "inputs": [
        {
          "internalType": "address",
          "name": "user",
          "type": "address"
        }
      ],
      "name": "getAllTokensForUser",
      "outputs": [
        {
          "internalType": "uint256[]",
          "name": "",
          "type": "uint256[]"
        }
      ],
      "stateMutability": "view",
      "type": "function"
    }
  ],
  "bytecode": "0x608060405260006007553480156200001657600080fd5b50604051620035d4380380620035d483398181016040528101906200003c9190620003b5565b818181600090805190602001906200005692919062000168565b5080600190805190602001906200006f92919062000168565b50505062000092620000866200009a60201b60201c565b620000a260201b60201c565b50506200049f565b600033905090565b6000600660009054906101000a900473ffffffffffffffffffffffffffffffffffffffff16905081600660006101000a81548173ffffffffffffffffffffffffffffffffffffffff021916908373ffffffffffffffffffffffffffffffffffffffff1602179055508173ffffffffffffffffffffffffffffffffffffffff168173ffffffffffffffffffffffffffffffffffffffff167f8be0079c531659141344cd1fd0a4f28419497f9722a3daafe3b4186f6b6457e060405160405180910390a35050565b828054620001769062000469565b90600052602060002090601f0160209004810192826200019a5760008555620001e6565b82601f10620001b557805160ff1916838001178555620001e6565b82800160010185558215620001e6579182015b82811115620001e5578251825591602001919060010190620001c8565b5b509050620001f59190620001f9565b5090565b5b8082111562000214576000816000905550600101620001fa565b5090565b6000604051905090565b600080fd5b600080fd5b600080fd5b600080fd5b6000601f19601f8301169050919050565b7f4e487b7100000000000000000000000000000000000000000000000000000000600052604160045260246000fd5b620002818262000236565b810181811067ffffffffffffffff82111715620002a357620002a262000247565b5b80604052505050565b6000620002b862000218565b9050620002c6828262000276565b919050565b600067ffffffffffffffff821115620002e957620002e862000247565b5b620002f48262000236565b9050602081019050919050565b60005b838110156200032157808201518184015260208101905062000304565b8381111562000331576000848401525b50505050565b60006200034e6200034884620002cb565b620002ac565b9050828152602081018484840111156200036d576200036c62000231565b5b6200037a84828562000301565b509392505050565b600082601f8301126200039a57620003996200022c565b5b8151620003ac84826020860162000337565b91505092915050565b60008060408385031215620003cf57620003ce62000222565b5b600083015167ffffffffffffffff811115620003f057620003ef62000227565b5b620003fe8582860162000382565b925050602083015167ffffffffffffffff81111562000422576200042162000227565b5b620004308582860162000382565b9150509250929050565b7f4e487b7100000000000000000000000000000000000000000000000000000000600052602260045260246000fd5b600060028204905060018216806200048257607f821691505b602082108114156200049957620004986200043a565b5b50919050565b61312580620004af6000396000f3fe608060405234801561001057600080fd5b506004361061012c5760003560e01c80638da5cb5b116100ad578063c87b56dd11610071578063c87b56dd14610341578063e985e9c514610371578063eb22ed32146103a1578063f2fde38b146103bd578063f59dfdfb146103d95761012c565b80638da5cb5b1461029d57806395d89b41146102bb578063a22cb465146102d9578063b88d4fde146102f5578063c1e03728146103115761012c565b806342842e0e116100f457806342842e0e146101e75780636352211e1461020357806370a0823114610233578063715018a61461026357806382de8fe91461026d5761012c565b806301ffc9a71461013157806306fdde0314610161578063081812fc1461017f578063095ea7b3146101af57806323b872dd146101cb575b600080fd5b61014b60048036038101906101469190611dbf565b6103f5565b6040516101589190611e07565b60405180910390f35b6101696104d7565b6040516101769190611ebb565b60405180910390f35b61019960048036038101906101949190611f13565b610569565b6040516101a69190611f81565b60405180910390f35b6101c960048036038101906101c49190611fc8565b6105ee565b005b6101e560048036038101906101e09190612008565b610706565b005b61020160048036038101906101fc9190612008565b610766565b005b61021d60048036038101906102189190611f13565b610786565b60405161022a9190611f81565b60405180910390f35b61024d6004803603810190610248919061205b565b610838565b60405161025a9190612097565b60405180910390f35b61026b6108f0565b005b6102876004803603810190610282919061205b565b610978565b6040516102949190612170565b60405180910390f35b6102a5610ace565b6040516102b29190611f81565b60405180910390f35b6102c3610af8565b6040516102d09190611ebb565b60405180910390f35b6102f360048036038101906102ee91906121be565b610b8a565b005b61030f600480360381019061030a9190612333565b610ba0565b005b61032b60048036038101906103269190611f13565b610c02565b6040516103389190612427565b60405180910390f35b61035b60048036038101906103569190611f13565b610c7d565b6040516103689190611ebb565b60405180910390f35b61038b60048036038101906103869190612442565b610d24565b6040516103989190611e07565b60405180910390f35b6103bb60048036038101906103b691906124ae565b610db8565b005b6103d760048036038101906103d2919061205b565b610ef2565b005b6103f360048036038101906103ee9190611f13565b610fea565b005b60007f80ac58cd000000000000000000000000000000000000000000000000000000007bffffffffffffffffffffffffffffffffffffffffffffffffffffffff1916827bffffffffffffffffffffffffffffffffffffffffffffffffffffffff191614806104c057507f5b5e139f000000000000000000000000000000000000000000000000000000007bffffffffffffffffffffffffffffffffffffffffffffffffffffffff1916827bffffffffffffffffffffffffffffffffffffffffffffffffffffffff1916145b806104d057506104cf8261102d565b5b9050919050565b6060600080546104e690612530565b80601f016020809104026020016040519081016040528092919081815260200182805461051290612530565b801561055f5780601f106105345761010080835404028352916020019161055f565b820191906000526020600020905b81548152906001019060200180831161054257829003601f168201915b5050505050905090565b600061057482611097565b6105b3576040517f08c379a00000000000000000000000000000000000000000000000000000000081526004016105aa906125d4565b60405180910390fd5b6004600083815260200190815260200160002060009054906101000a900473ffffffffffffffffffffffffffffffffffffffff169050919050565b60006105f982610786565b90508073ffffffffffffffffffffffffffffffffffffffff168373ffffffffffffffffffffffffffffffffffffffff16141561066a576040517f08c379a000000000000000000000000000000000000000000000000000000000815260040161066190612666565b60405180910390fd5b8073ffffffffffffffffffffffffffffffffffffffff16610689611103565b73ffffffffffffffffffffffffffffffffffffffff1614806106b857506106b7816106b2611103565b610d24565b5b6106f7576040517f08c379a00000000000000000000000000000000000000000000000000000000081526004016106ee906126f8565b60405180910390fd5b610701838361110b565b505050565b610717610711611103565b826111c4565b610756576040517f08c379a000000000000000000000000000000000000000000000000000000000815260040161074d9061278a565b60405180910390fd5b6107618383836112a2565b505050565b61078183838360405180602001604052806000815250610ba0565b505050565b6000806002600084815260200190815260200160002060009054906101000a900473ffffffffffffffffffffffffffffffffffffffff169050600073ffffffffffffffffffffffffffffffffffffffff168173ffffffffffffffffffffffffffffffffffffffff16141561082f576040517f08c379a00000000000000000000000000000000000000000000000000000000081526004016108269061281c565b60405180910390fd5b80915050919050565b60008073ffffffffffffffffffffffffffffffffffffffff168273ffffffffffffffffffffffffffffffffffffffff1614156108a9576040517f08c379a00000000000000000000000000000000000000000000000000000000081526004016108a0906128ae565b60405180910390fd5b600360008373ffffffffffffffffffffffffffffffffffffffff1673ffffffffffffffffffffffffffffffffffffffff168152602001908152602001600020549050919050565b6108f8611103565b73ffffffffffffffffffffffffffffffffffffffff16610916610ace565b73ffffffffffffffffffffffffffffffffffffffff161461096c576040517f08c379a00000000000000000000000000000000000000000000000000000000081526004016109639061291a565b60405180910390fd5b61097660006114fe565b565b6060600061098583610838565b905060008114156109e257600067ffffffffffffffff8111156109ab576109aa612208565b5b6040519080825280602002602001820160405280156109d95781602001602082028036833780820191505090505b50915050610ac9565b60008167ffffffffffffffff8111156109fe576109fd612208565b5b604051908082528060200260200182016040528015610a2c5781602001602082028036833780820191505090505b509050600060075490506000805b82811015610ac0578673ffffffffffffffffffffffffffffffffffffffff16610a6282610786565b73ffffffffffffffffffffffffffffffffffffffff161415610aad5780848381518110610a9257610a9161293a565b5b6020026020010181815250508180610aa990612998565b9250505b8080610ab890612998565b915050610a3a565b83955050505050505b919050565b6000600660009054906101000a900473ffffffffffffffffffffffffffffffffffffffff16905090565b606060018054610b0790612530565b80601f0160208091040260200160405190810160405280929190818152602001828054610b3390612530565b8015610b805780601f10610b5557610100808354040283529160200191610b80565b820191906000526020600020905b815481529060010190602001808311610b6357829003601f168201915b5050505050905090565b610b9c610b95611103565b83836115c4565b5050565b610bb1610bab611103565b836111c4565b610bf0576040517f08c379a0000000000000000000000000000000000000000000000000000000008152600401610be79061278a565b60405180910390fd5b610bfc84848484611731565b50505050565b610c0a611d25565b600860008381526020019081526020016000206040518060800160405290816000820160009054906101000a900460ff1660ff1660ff1681526020016000820160019054906101000a900460ff1660ff1660ff168152602001600182015481526020016002820154815250509050919050565b6060610c8882611097565b610cc7576040517f08c379a0000000000000000000000000000000000000000000000000000000008152600401610cbe90612a53565b60405180910390fd5b6000610cd161178d565b90506000815111610cf15760405180602001604052806000815250610d1c565b80610cfb846117a4565b604051602001610d0c929190612aaf565b6040516020818303038152906040525b915050919050565b6000600560008473ffffffffffffffffffffffffffffffffffffffff1673ffffffffffffffffffffffffffffffffffffffff16815260200190815260200160002060008373ffffffffffffffffffffffffffffffffffffffff1673ffffffffffffffffffffffffffffffffffffffff16815260200190815260200160002060009054906101000a900460ff16905092915050565b610dc0611103565b73ffffffffffffffffffffffffffffffffffffffff16610dde610ace565b73ffffffffffffffffffffffffffffffffffffffff1614610e34576040517f08c379a0000000000000000000000000000000000000000000000000000000008152600401610e2b9061291a565b60405180910390fd5b60405180608001604052808460ff1681526020018360ff1681526020014281526020018281525060086000600754815260200190815260200160002060008201518160000160006101000a81548160ff021916908360ff16021790555060208201518160000160016101000a81548160ff021916908360ff1602179055506040820151816001015560608201518160020155905050610ed533600754611905565b60076000815480929190610ee890612998565b9190505550505050565b610efa611103565b73ffffffffffffffffffffffffffffffffffffffff16610f18610ace565b73ffffffffffffffffffffffffffffffffffffffff1614610f6e576040517f08c379a0000000000000000000000000000000000000000000000000000000008152600401610f659061291a565b60405180910390fd5b600073ffffffffffffffffffffffffffffffffffffffff168173ffffffffffffffffffffffffffffffffffffffff161415610fde576040517f08c379a0000000000000000000000000000000000000000000000000000000008152600401610fd590612b45565b60405180910390fd5b610fe7816114fe565b50565b600060086000838152602001908152602001600020905042816002015482600101546110169190612b65565b1161102057600080fd5b4281600101819055505050565b60007f01ffc9a7000000000000000000000000000000000000000000000000000000007bffffffffffffffffffffffffffffffffffffffffffffffffffffffff1916827bffffffffffffffffffffffffffffffffffffffffffffffffffffffff1916149050919050565b60008073ffffffffffffffffffffffffffffffffffffffff166002600084815260200190815260200160002060009054906101000a900473ffffffffffffffffffffffffffffffffffffffff1673ffffffffffffffffffffffffffffffffffffffff1614159050919050565b600033905090565b816004600083815260200190815260200160002060006101000a81548173ffffffffffffffffffffffffffffffffffffffff021916908373ffffffffffffffffffffffffffffffffffffffff160217905550808273ffffffffffffffffffffffffffffffffffffffff1661117e83610786565b73ffffffffffffffffffffffffffffffffffffffff167f8c5be1e5ebec7d5bd14f71427d1e84f3dd0314c0f7b2291e5b200ac8c7c3b92560405160405180910390a45050565b60006111cf82611097565b61120e576040517f08c379a000000000000000000000000000000000000000000000000000000000815260040161120590612c2d565b60405180910390fd5b600061121983610786565b90508073ffffffffffffffffffffffffffffffffffffffff168473ffffffffffffffffffffffffffffffffffffffff16148061128857508373ffffffffffffffffffffffffffffffffffffffff1661127084610569565b73ffffffffffffffffffffffffffffffffffffffff16145b8061129957506112988185610d24565b5b91505092915050565b8273ffffffffffffffffffffffffffffffffffffffff166112c282610786565b73ffffffffffffffffffffffffffffffffffffffff1614611318576040517f08c379a000000000000000000000000000000000000000000000000000000000815260040161130f90612cbf565b60405180910390fd5b600073ffffffffffffffffffffffffffffffffffffffff168273ffffffffffffffffffffffffffffffffffffffff161415611388576040517f08c379a000000000000000000000000000000000000000000000000000000000815260040161137f90612d51565b60405180910390fd5b611393838383611923565b61139e60008261110b565b6001600360008573ffffffffffffffffffffffffffffffffffffffff1673ffffffffffffffffffffffffffffffffffffffff16815260200190815260200160002060008282546113ee9190612d71565b925050819055506001600360008473ffffffffffffffffffffffffffffffffffffffff1673ffffffffffffffffffffffffffffffffffffffff16815260200190815260200160002060008282546114459190612b65565b92505081905550816002600083815260200190815260200160002060006101000a81548173ffffffffffffffffffffffffffffffffffffffff021916908373ffffffffffffffffffffffffffffffffffffffff160217905550808273ffffffffffffffffffffffffffffffffffffffff168473ffffffffffffffffffffffffffffffffffffffff167fddf252ad1be2c89b69c2b068fc378daa952ba7f163c4a11628f55a4df523b3ef60405160405180910390a4505050565b6000600660009054906101000a900473ffffffffffffffffffffffffffffffffffffffff16905081600660006101000a81548173ffffffffffffffffffffffffffffffffffffffff021916908373ffffffffffffffffffffffffffffffffffffffff1602179055508173ffffffffffffffffffffffffffffffffffffffff168173ffffffffffffffffffffffffffffffffffffffff167f8be0079c531659141344cd1fd0a4f28419497f9722a3daafe3b4186f6b6457e060405160405180910390a35050565b8173ffffffffffffffffffffffffffffffffffffffff168373ffffffffffffffffffffffffffffffffffffffff161415611633576040517f08c379a000000000000000000000000000000000000000000000000000000000815260040161162a90612df1565b60405180910390fd5b80600560008573ffffffffffffffffffffffffffffffffffffffff1673ffffffffffffffffffffffffffffffffffffffff16815260200190815260200160002060008473ffffffffffffffffffffffffffffffffffffffff1673ffffffffffffffffffffffffffffffffffffffff16815260200190815260200160002060006101000a81548160ff0219169083151502179055508173ffffffffffffffffffffffffffffffffffffffff168373ffffffffffffffffffffffffffffffffffffffff167f17307eab39ab6107e8899845ad3d59bd9653f200f220920489ca2b5937696c31836040516117249190611e07565b60405180910390a3505050565b61173c8484846112a2565b61174884848484611961565b611787576040517f08c379a000000000000000000000000000000000000000000000000000000000815260040161177e90612e83565b60405180910390fd5b50505050565b606060405180602001604052806000815250905090565b606060008214156117ec576040518060400160405280600181526020017f30000000000000000000000000000000000000000000000000000000000000008152509050611900565b600082905060005b6000821461181e57808061180790612998565b915050600a826118179190612ed2565b91506117f4565b60008167ffffffffffffffff81111561183a57611839612208565b5b6040519080825280601f01601f19166020018201604052801561186c5781602001600182028036833780820191505090505b5090505b600085146118f9576001826118859190612d71565b9150600a856118949190612f03565b60306118a09190612b65565b60f81b8183815181106118b6576118b561293a565b5b60200101907effffffffffffffffffffffffffffffffffffffffffffffffffffffffffffff1916908160001a905350600a856118f29190612ed2565b9450611870565b8093505050505b919050565b61191f828260405180602001604052806000815250611ae9565b5050565b6000600860006007548152602001908152602001600020905042816002015482600101546119519190612b65565b1161195b57600080fd5b50505050565b60006119828473ffffffffffffffffffffffffffffffffffffffff16611b44565b15611adc578373ffffffffffffffffffffffffffffffffffffffff1663150b7a026119ab611103565b8786866040518563ffffffff1660e01b81526004016119cd9493929190612f89565b6020604051808303816000875af1925050508015611a0957506040513d601f19601f82011682018060405250810190611a069190612fea565b60015b611a8c573d8060008114611a39576040519150601f19603f3d011682016040523d82523d6000602084013e611a3e565b606091505b50600081511415611a84576040517f08c379a0000000000000000000000000000000000000000000000000000000008152600401611a7b90612e83565b60405180910390fd5b805181602001fd5b63150b7a0260e01b7bffffffffffffffffffffffffffffffffffffffffffffffffffffffff1916817bffffffffffffffffffffffffffffffffffffffffffffffffffffffff191614915050611ae1565b600190505b949350505050565b611af38383611b57565b611b006000848484611961565b611b3f576040517f08c379a0000000000000000000000000000000000000000000000000000000008152600401611b3690612e83565b60405180910390fd5b505050565b600080823b905060008111915050919050565b600073ffffffffffffffffffffffffffffffffffffffff168273ffffffffffffffffffffffffffffffffffffffff161415611bc7576040517f08c379a0000000000000000000000000000000000000000000000000000000008152600401611bbe90613063565b60405180910390fd5b611bd081611097565b15611c10576040517f08c379a0000000000000000000000000000000000000000000000000000000008152600401611c07906130cf565b60405180910390fd5b611c1c60008383611923565b6001600360008473ffffffffffffffffffffffffffffffffffffffff1673ffffffffffffffffffffffffffffffffffffffff1681526020019081526020016000206000828254611c6c9190612b65565b92505081905550816002600083815260200190815260200160002060006101000a81548173ffffffffffffffffffffffffffffffffffffffff021916908373ffffffffffffffffffffffffffffffffffffffff160217905550808273ffffffffffffffffffffffffffffffffffffffff16600073ffffffffffffffffffffffffffffffffffffffff167fddf252ad1be2c89b69c2b068fc378daa952ba7f163c4a11628f55a4df523b3ef60405160405180910390a45050565b6040518060800160405280600060ff168152602001600060ff16815260200160008152602001600081525090565b6000604051905090565b600080fd5b600080fd5b60007fffffffff0000000000000000000000000000000000000000000000000000000082169050919050565b611d9c81611d67565b8114611da757600080fd5b50565b600081359050611db981611d93565b92915050565b600060208284031215611dd557611dd4611d5d565b5b6000611de384828501611daa565b91505092915050565b60008115159050919050565b611e0181611dec565b82525050565b6000602082019050611e1c6000830184611df8565b92915050565b600081519050919050565b600082825260208201905092915050565b60005b83811015611e5c578082015181840152602081019050611e41565b83811115611e6b576000848401525b50505050565b6000601f19601f8301169050919050565b6000611e8d82611e22565b611e978185611e2d565b9350611ea7818560208601611e3e565b611eb081611e71565b840191505092915050565b60006020820190508181036000830152611ed58184611e82565b905092915050565b6000819050919050565b611ef081611edd565b8114611efb57600080fd5b50565b600081359050611f0d81611ee7565b92915050565b600060208284031215611f2957611f28611d5d565b5b6000611f3784828501611efe565b91505092915050565b600073ffffffffffffffffffffffffffffffffffffffff82169050919050565b6000611f6b82611f40565b9050919050565b611f7b81611f60565b82525050565b6000602082019050611f966000830184611f72565b92915050565b611fa581611f60565b8114611fb057600080fd5b50565b600081359050611fc281611f9c565b92915050565b60008060408385031215611fdf57611fde611d5d565b5b6000611fed85828601611fb3565b9250506020611ffe85828601611efe565b9150509250929050565b60008060006060848603121561202157612020611d5d565b5b600061202f86828701611fb3565b935050602061204086828701611fb3565b925050604061205186828701611efe565b9150509250925092565b60006020828403121561207157612070611d5d565b5b600061207f84828501611fb3565b91505092915050565b61209181611edd565b82525050565b60006020820190506120ac6000830184612088565b92915050565b600081519050919050565b600082825260208201905092915050565b6000819050602082019050919050565b6120e781611edd565b82525050565b60006120f983836120de565b60208301905092915050565b6000602082019050919050565b600061211d826120b2565b61212781856120bd565b9350612132836120ce565b8060005b8381101561216357815161214a88826120ed565b975061215583612105565b925050600181019050612136565b5085935050505092915050565b6000602082019050818103600083015261218a8184612112565b905092915050565b61219b81611dec565b81146121a657600080fd5b50565b6000813590506121b881612192565b92915050565b600080604083850312156121d5576121d4611d5d565b5b60006121e385828601611fb3565b92505060206121f4858286016121a9565b9150509250929050565b600080fd5b600080fd5b7f4e487b7100000000000000000000000000000000000000000000000000000000600052604160045260246000fd5b61224082611e71565b810181811067ffffffffffffffff8211171561225f5761225e612208565b5b80604052505050565b6000612272611d53565b905061227e8282612237565b919050565b600067ffffffffffffffff82111561229e5761229d612208565b5b6122a782611e71565b9050602081019050919050565b82818337600083830152505050565b60006122d66122d184612283565b612268565b9050828152602081018484840111156122f2576122f1612203565b5b6122fd8482856122b4565b509392505050565b600082601f83011261231a576123196121fe565b5b813561232a8482602086016122c3565b91505092915050565b6000806000806080858703121561234d5761234c611d5d565b5b600061235b87828801611fb3565b945050602061236c87828801611fb3565b935050604061237d87828801611efe565b925050606085013567ffffffffffffffff81111561239e5761239d611d62565b5b6123aa87828801612305565b91505092959194509250565b600060ff82169050919050565b6123cc816123b6565b82525050565b6080820160008201516123e860008501826123c3565b5060208201516123fb60208501826123c3565b50604082015161240e60408501826120de565b50606082015161242160608501826120de565b50505050565b600060808201905061243c60008301846123d2565b92915050565b6000806040838503121561245957612458611d5d565b5b600061246785828601611fb3565b925050602061247885828601611fb3565b9150509250929050565b61248b816123b6565b811461249657600080fd5b50565b6000813590506124a881612482565b92915050565b6000806000606084860312156124c7576124c6611d5d565b5b60006124d586828701612499565b93505060206124e686828701612499565b92505060406124f786828701611efe565b9150509250925092565b7f4e487b7100000000000000000000000000000000000000000000000000000000600052602260045260246000fd5b6000600282049050600182168061254857607f821691505b6020821081141561255c5761255b612501565b5b50919050565b7f4552433732313a20617070726f76656420717565727920666f72206e6f6e657860008201527f697374656e7420746f6b656e0000000000000000000000000000000000000000602082015250565b60006125be602c83611e2d565b91506125c982612562565b604082019050919050565b600060208201905081810360008301526125ed816125b1565b9050919050565b7f4552433732313a20617070726f76616c20746f2063757272656e74206f776e6560008201527f7200000000000000000000000000000000000000000000000000000000000000602082015250565b6000612650602183611e2d565b915061265b826125f4565b604082019050919050565b6000602082019050818103600083015261267f81612643565b9050919050565b7f4552433732313a20617070726f76652063616c6c6572206973206e6f74206f7760008201527f6e6572206e6f7220617070726f76656420666f7220616c6c0000000000000000602082015250565b60006126e2603883611e2d565b91506126ed82612686565b604082019050919050565b60006020820190508181036000830152612711816126d5565b9050919050565b7f4552433732313a207472616e736665722063616c6c6572206973206e6f74206f60008201527f776e6572206e6f7220617070726f766564000000000000000000000000000000602082015250565b6000612774603183611e2d565b915061277f82612718565b604082019050919050565b600060208201905081810360008301526127a381612767565b9050919050565b7f4552433732313a206f776e657220717565727920666f72206e6f6e657869737460008201527f656e7420746f6b656e0000000000000000000000000000000000000000000000602082015250565b6000612806602983611e2d565b9150612811826127aa565b604082019050919050565b60006020820190508181036000830152612835816127f9565b9050919050565b7f4552433732313a2062616c616e636520717565727920666f7220746865207a6560008201527f726f206164647265737300000000000000000000000000000000000000000000602082015250565b6000612898602a83611e2d565b91506128a38261283c565b604082019050919050565b600060208201905081810360008301526128c78161288b565b9050919050565b7f4f776e61626c653a2063616c6c6572206973206e6f7420746865206f776e6572600082015250565b6000612904602083611e2d565b915061290f826128ce565b602082019050919050565b60006020820190508181036000830152612933816128f7565b9050919050565b7f4e487b7100000000000000000000000000000000000000000000000000000000600052603260045260246000fd5b7f4e487b7100000000000000000000000000000000000000000000000000000000600052601160045260246000fd5b60006129a382611edd565b91507fffffffffffffffffffffffffffffffffffffffffffffffffffffffffffffffff8214156129d6576129d5612969565b5b600182019050919050565b7f4552433732314d657461646174613a2055524920717565727920666f72206e6f60008201527f6e6578697374656e7420746f6b656e0000000000000000000000000000000000602082015250565b6000612a3d602f83611e2d565b9150612a48826129e1565b604082019050919050565b60006020820190508181036000830152612a6c81612a30565b9050919050565b600081905092915050565b6000612a8982611e22565b612a938185612a73565b9350612aa3818560208601611e3e565b80840191505092915050565b6000612abb8285612a7e565b9150612ac78284612a7e565b91508190509392505050565b7f4f776e61626c653a206e6577206f776e657220697320746865207a65726f206160008201527f6464726573730000000000000000000000000000000000000000000000000000602082015250565b6000612b2f602683611e2d565b9150612b3a82612ad3565b604082019050919050565b60006020820190508181036000830152612b5e81612b22565b9050919050565b6000612b7082611edd565b9150612b7b83611edd565b9250827fffffffffffffffffffffffffffffffffffffffffffffffffffffffffffffffff03821115612bb057612baf612969565b5b828201905092915050565b7f4552433732313a206f70657261746f7220717565727920666f72206e6f6e657860008201527f697374656e7420746f6b656e0000000000000000000000000000000000000000602082015250565b6000612c17602c83611e2d565b9150612c2282612bbb565b604082019050919050565b60006020820190508181036000830152612c4681612c0a565b9050919050565b7f4552433732313a207472616e73666572206f6620746f6b656e2074686174206960008201527f73206e6f74206f776e0000000000000000000000000000000000000000000000602082015250565b6000612ca9602983611e2d565b9150612cb482612c4d565b604082019050919050565b60006020820190508181036000830152612cd881612c9c565b9050919050565b7f4552433732313a207472616e7366657220746f20746865207a65726f2061646460008201527f7265737300000000000000000000000000000000000000000000000000000000602082015250565b6000612d3b602483611e2d565b9150612d4682612cdf565b604082019050919050565b60006020820190508181036000830152612d6a81612d2e565b9050919050565b6000612d7c82611edd565b9150612d8783611edd565b925082821015612d9a57612d99612969565b5b828203905092915050565b7f4552433732313a20617070726f766520746f2063616c6c657200000000000000600082015250565b6000612ddb601983611e2d565b9150612de682612da5565b602082019050919050565b60006020820190508181036000830152612e0a81612dce565b9050919050565b7f4552433732313a207472616e7366657220746f206e6f6e20455243373231526560008201527f63656976657220696d706c656d656e7465720000000000000000000000000000602082015250565b6000612e6d603283611e2d565b9150612e7882612e11565b604082019050919050565b60006020820190508181036000830152612e9c81612e60565b9050919050565b7f4e487b7100000000000000000000000000000000000000000000000000000000600052601260045260246000fd5b6000612edd82611edd565b9150612ee883611edd565b925082612ef857612ef7612ea3565b5b828204905092915050565b6000612f0e82611edd565b9150612f1983611edd565b925082612f2957612f28612ea3565b5b828206905092915050565b600081519050919050565b600082825260208201905092915050565b6000612f5b82612f34565b612f658185612f3f565b9350612f75818560208601611e3e565b612f7e81611e71565b840191505092915050565b6000608082019050612f9e6000830187611f72565b612fab6020830186611f72565b612fb86040830185612088565b8181036060830152612fca8184612f50565b905095945050505050565b600081519050612fe481611d93565b92915050565b60006020828403121561300057612fff611d5d565b5b600061300e84828501612fd5565b91505092915050565b7f4552433732313a206d696e7420746f20746865207a65726f2061646472657373600082015250565b600061304d602083611e2d565b915061305882613017565b602082019050919050565b6000602082019050818103600083015261307c81613040565b9050919050565b7f4552433732313a20746f6b656e20616c7265616479206d696e74656400000000600082015250565b60006130b9601c83611e2d565b91506130c482613083565b602082019050919050565b600060208201905081810360008301526130e8816130ac565b905091905056fea2646970667358221220f6d6c64d0e7c7bf1ddaee7df9f0265e38b569b677ff95d419d2ed456230e956764736f6c634300080a0033",
  "immutableReferences": {},
  "source": "pragma solidity 0.8.10;\n\nimport \"../node_modules/@openzeppelin/contracts/token/ERC721/ERC721.sol\";\nimport \"../node_modules/@openzeppelin/contracts/access/Ownable.sol\";\n\ncontract Token is ERC721, Ownable {\n\n    struct Pet {\n        uint8 damage;\n        uint8 magic;\n        uint256 lastMeal;\n        uint256 endurance;\n    }\n\n    uint256 nextId = 0;\n\n    mapping (uint256 => Pet) private _tokenDetails; \n\n    constructor(string memory name, string memory symbol) ERC721(name, symbol) {\n\n    }\n\n    function mint(uint8 damage, uint8 magic, uint256 endurance) public onlyOwner {\n        _tokenDetails[nextId] = Pet(damage, magic, block.timestamp, endurance);\n        _safeMint(msg.sender, nextId);\n\n        nextId++;\n    }\n\n    function feed(uint256 tokenId) public {\n        Pet storage pet = _tokenDetails[tokenId];\n        require(pet.lastMeal + pet.endurance > block.timestamp);\n        pet.lastMeal = block.timestamp;\n    }\n    \n    function getTokenDetails(uint256 tokenId) public view returns (Pet memory) {\n        return _tokenDetails[tokenId];\n    }\n\n    function getAllTokensForUser(address user) public view returns (uint256[] memory) {\n        uint256 tokenCount = balanceOf(user);\n        if(tokenCount == 0) {\n            return new uint256[](0);\n        } else {\n            uint[] memory result = new uint256[](tokenCount);\n            uint256 totalPets = nextId; \n            uint256 resultIndex = 0;\n            uint256 i;\n            for(i = 0; i < totalPets; i++) {\n                if(ownerOf(i) == user) {\n                    result[resultIndex] = i;\n                    resultIndex++;\n                }\n            }\n            return result;\n        }\n    }\n\n    function _beforeTokenTransfer( \n        address from,\n        address to,\n        uint256 tokenId\n    ) internal override {\n        Pet storage pet = _tokenDetails[nextId];\n        require(pet.lastMeal + pet.endurance > block.timestamp);\n\n    }\n\n}\n\n",
  "sourcePath": "/Users/ilkerulusoy/git/git_nft/game/contracts/Token.sol",
  "compiler": {
    "name": "solc",
    "version": "0.8.10+commit.fc410830.Emscripten.clang"
  },
  "schemaVersion": "3.4.3",
  "updatedAt": "2021-12-21T21:02:07.301Z",
  "devdoc": {
    "kind": "dev",
    "methods": {
      "approve(address,uint256)": {
        "details": "See {IERC721-approve}."
      },
      "balanceOf(address)": {
        "details": "See {IERC721-balanceOf}."
      },
      "getApproved(uint256)": {
        "details": "See {IERC721-getApproved}."
      },
      "isApprovedForAll(address,address)": {
        "details": "See {IERC721-isApprovedForAll}."
      },
      "name()": {
        "details": "See {IERC721Metadata-name}."
      },
      "owner()": {
        "details": "Returns the address of the current owner."
      },
      "ownerOf(uint256)": {
        "details": "See {IERC721-ownerOf}."
      },
      "renounceOwnership()": {
        "details": "Leaves the contract without owner. It will not be possible to call `onlyOwner` functions anymore. Can only be called by the current owner. NOTE: Renouncing ownership will leave the contract without an owner, thereby removing any functionality that is only available to the owner."
      },
      "safeTransferFrom(address,address,uint256)": {
        "details": "See {IERC721-safeTransferFrom}."
      },
      "safeTransferFrom(address,address,uint256,bytes)": {
        "details": "See {IERC721-safeTransferFrom}."
      },
      "setApprovalForAll(address,bool)": {
        "details": "See {IERC721-setApprovalForAll}."
      },
      "supportsInterface(bytes4)": {
        "details": "See {IERC165-supportsInterface}."
      },
      "symbol()": {
        "details": "See {IERC721Metadata-symbol}."
      },
      "tokenURI(uint256)": {
        "details": "See {IERC721Metadata-tokenURI}."
      },
      "transferFrom(address,address,uint256)": {
        "details": "See {IERC721-transferFrom}."
      },
      "transferOwnership(address)": {
        "details": "Transfers ownership of the contract to a new account (`newOwner`). Can only be called by the current owner."
      }
    },
    "version": 1
  },
  "userdoc": {
    "kind": "user",
    "methods": {},
    "version": 1
  }
}