{
    "contractName": "Token",
    "abi": [
        {
            "inputs": [
                {
                    "internalType": "string",
                    "name": "name",
                    "type": "string"
                },
                {
                    "internalType": "string",
                    "name": "symbol",
                    "type": "string"
                }
            ],
            "stateMutability": "nonpayable",
            "type": "constructor"
        },
        {
            "anonymous": false,
            "inputs": [
                {
                    "indexed": true,
                    "internalType": "address",
                    "name": "owner",
                    "type": "address"
                },
                {
                    "indexed": true,
                    "internalType": "address",
                    "name": "approved",
                    "type": "address"
                },
                {
                    "indexed": true,
                    "internalType": "uint256",
                    "name": "tokenId",
                    "type": "uint256"
                }
            ],
            "name": "Approval",
            "type": "event"
        },
        {
            "anonymous": false,
            "inputs": [
                {
                    "indexed": true,
                    "internalType": "address",
                    "name": "owner",
                    "type": "address"
                },
                {
                    "indexed": true,
                    "internalType": "address",
                    "name": "operator",
                    "type": "address"
                },
                {
                    "indexed": false,
                    "internalType": "bool",
                    "name": "approved",
                    "type": "bool"
                }
            ],
            "name": "ApprovalForAll",
            "type": "event"
        },
        {
            "anonymous": false,
            "inputs": [
                {
                    "indexed": true,
                    "internalType": "address",
                    "name": "previousOwner",
                    "type": "address"
                },
                {
                    "indexed": true,
                    "internalType": "address",
                    "name": "newOwner",
                    "type": "address"
                }
            ],
            "name": "OwnershipTransferred",
            "type": "event"
        },
        {
            "anonymous": false,
            "inputs": [
                {
                    "indexed": true,
                    "internalType": "address",
                    "name": "from",
                    "type": "address"
                },
                {
                    "indexed": true,
                    "internalType": "address",
                    "name": "to",
                    "type": "address"
                },
                {
                    "indexed": true,
                    "internalType": "uint256",
                    "name": "tokenId",
                    "type": "uint256"
                }
            ],
            "name": "Transfer",
            "type": "event"
        },
        {
            "inputs": [
                {
                    "internalType": "address",
                    "name": "to",
                    "type": "address"
                },
                {
                    "internalType": "uint256",
                    "name": "tokenId",
                    "type": "uint256"
                }
            ],
            "name": "approve",
            "outputs": [],
            "stateMutability": "nonpayable",
            "type": "function"
        },
        {
            "inputs": [
                {
                    "internalType": "address",
                    "name": "owner",
                    "type": "address"
                }
            ],
            "name": "balanceOf",
            "outputs": [
                {
                    "internalType": "uint256",
                    "name": "",
                    "type": "uint256"
                }
            ],
            "stateMutability": "view",
            "type": "function",
            "constant": true
        },
        {
            "inputs": [
                {
                    "internalType": "uint256",
                    "name": "tokenId",
                    "type": "uint256"
                }
            ],
            "name": "getApproved",
            "outputs": [
                {
                    "internalType": "address",
                    "name": "",
                    "type": "address"
                }
            ],
            "stateMutability": "view",
            "type": "function",
            "constant": true
        },
        {
            "inputs": [
                {
                    "internalType": "address",
                    "name": "owner",
                    "type": "address"
                },
                {
                    "internalType": "address",
                    "name": "operator",
                    "type": "address"
                }
            ],
            "name": "isApprovedForAll",
            "outputs": [
                {
                    "internalType": "bool",
                    "name": "",
                    "type": "bool"
                }
            ],
            "stateMutability": "view",
            "type": "function",
            "constant": true
        },
        {
            "inputs": [],
            "name": "name",
            "outputs": [
                {
                    "internalType": "string",
                    "name": "",
                    "type": "string"
                }
            ],
            "stateMutability": "view",
            "type": "function",
            "constant": true
        },
        {
            "inputs": [],
            "name": "owner",
            "outputs": [
                {
                    "internalType": "address",
                    "name": "",
                    "type": "address"
                }
            ],
            "stateMutability": "view",
            "type": "function",
            "constant": true
        },
        {
            "inputs": [
                {
                    "internalType": "uint256",
                    "name": "tokenId",
                    "type": "uint256"
                }
            ],
            "name": "ownerOf",
            "outputs": [
                {
                    "internalType": "address",
                    "name": "",
                    "type": "address"
                }
            ],
            "stateMutability": "view",
            "type": "function",
            "constant": true
        },
        {
            "inputs": [],
            "name": "renounceOwnership",
            "outputs": [],
            "stateMutability": "nonpayable",
            "type": "function"
        },
        {
            "inputs": [
                {
                    "internalType": "address",
                    "name": "from",
                    "type": "address"
                },
                {
                    "internalType": "address",
                    "name": "to",
                    "type": "address"
                },
                {
                    "internalType": "uint256",
                    "name": "tokenId",
                    "type": "uint256"
                }
            ],
            "name": "safeTransferFrom",
            "outputs": [],
            "stateMutability": "nonpayable",
            "type": "function"
        },
        {
            "inputs": [
                {
                    "internalType": "address",
                    "name": "from",
                    "type": "address"
                },
                {
                    "internalType": "address",
                    "name": "to",
                    "type": "address"
                },
                {
                    "internalType": "uint256",
                    "name": "tokenId",
                    "type": "uint256"
                },
                {
                    "internalType": "bytes",
                    "name": "_data",
                    "type": "bytes"
                }
            ],
            "name": "safeTransferFrom",
            "outputs": [],
            "stateMutability": "nonpayable",
            "type": "function"
        },
        {
            "inputs": [
                {
                    "internalType": "address",
                    "name": "operator",
                    "type": "address"
                },
                {
                    "internalType": "bool",
                    "name": "approved",
                    "type": "bool"
                }
            ],
            "name": "setApprovalForAll",
            "outputs": [],
            "stateMutability": "nonpayable",
            "type": "function"
        },
        {
            "inputs": [
                {
                    "internalType": "bytes4",
                    "name": "interfaceId",
                    "type": "bytes4"
                }
            ],
            "name": "supportsInterface",
            "outputs": [
                {
                    "internalType": "bool",
                    "name": "",
                    "type": "bool"
                }
            ],
            "stateMutability": "view",
            "type": "function",
            "constant": true
        },
        {
            "inputs": [],
            "name": "symbol",
            "outputs": [
                {
                    "internalType": "string",
                    "name": "",
                    "type": "string"
                }
            ],
            "stateMutability": "view",
            "type": "function",
            "constant": true
        },
        {
            "inputs": [
                {
                    "internalType": "uint256",
                    "name": "tokenId",
                    "type": "uint256"
                }
            ],
            "name": "tokenURI",
            "outputs": [
                {
                    "internalType": "string",
                    "name": "",
                    "type": "string"
                }
            ],
            "stateMutability": "view",
            "type": "function",
            "constant": true
        },
        {
            "inputs": [
                {
                    "internalType": "address",
                    "name": "from",
                    "type": "address"
                },
                {
                    "internalType": "address",
                    "name": "to",
                    "type": "address"
                },
                {
                    "internalType": "uint256",
                    "name": "tokenId",
                    "type": "uint256"
                }
            ],
            "name": "transferFrom",
            "outputs": [],
            "stateMutability": "nonpayable",
            "type": "function"
        },
        {
            "inputs": [
                {
                    "internalType": "address",
                    "name": "newOwner",
                    "type": "address"
                }
            ],
            "name": "transferOwnership",
            "outputs": [],
            "stateMutability": "nonpayable",
            "type": "function"
        },
        {
            "inputs": [
                {
                    "internalType": "uint8",
                    "name": "damage",
                    "type": "uint8"
                },
                {
                    "internalType": "uint8",
                    "name": "magic",
                    "type": "uint8"
                },
                {
                    "internalType": "uint256",
                    "name": "endurance",
                    "type": "uint256"
                }
            ],
            "name": "mint",
            "outputs": [],
            "stateMutability": "nonpayable",
            "type": "function"
        },
        {
            "inputs": [
                {
                    "internalType": "uint256",
                    "name": "tokenId",
                    "type": "uint256"
                }
            ],
            "name": "feed",
            "outputs": [],
            "stateMutability": "nonpayable",
            "type": "function"
        },
        {
            "inputs": [
                {
                    "internalType": "uint256",
                    "name": "tokenId",
                    "type": "uint256"
                }
            ],
            "name": "getTokenDetails",
            "outputs": [
                {
                    "components": [
                        {
                            "internalType": "uint8",
                            "name": "damage",
                            "type": "uint8"
                        },
                        {
                            "internalType": "uint8",
                            "name": "magic",
                            "type": "uint8"
                        },
                        {
                            "internalType": "uint256",
                            "name": "lastMeal",
                            "type": "uint256"
                        },
                        {
                            "internalType": "uint256",
                            "name": "endurance",
                            "type": "uint256"
                        }
                    ],
                    "internalType": "struct Token.Pet",
                    "name": "",
                    "type": "tuple"
                }
            ],
            "stateMutability": "view",
            "type": "function",
            "constant": true
        }
    ],
    "bytecode": "0x608060405260006007553480156200001657600080fd5b50604051620033743803806200337483398181016040528101906200003c9190620003b5565b818181600090805190602001906200005692919062000168565b5080600190805190602001906200006f92919062000168565b50505062000092620000866200009a60201b60201c565b620000a260201b60201c565b50506200049f565b600033905090565b6000600660009054906101000a900473ffffffffffffffffffffffffffffffffffffffff16905081600660006101000a81548173ffffffffffffffffffffffffffffffffffffffff021916908373ffffffffffffffffffffffffffffffffffffffff1602179055508173ffffffffffffffffffffffffffffffffffffffff168173ffffffffffffffffffffffffffffffffffffffff167f8be0079c531659141344cd1fd0a4f28419497f9722a3daafe3b4186f6b6457e060405160405180910390a35050565b828054620001769062000469565b90600052602060002090601f0160209004810192826200019a5760008555620001e6565b82601f10620001b557805160ff1916838001178555620001e6565b82800160010185558215620001e6579182015b82811115620001e5578251825591602001919060010190620001c8565b5b509050620001f59190620001f9565b5090565b5b8082111562000214576000816000905550600101620001fa565b5090565b6000604051905090565b600080fd5b600080fd5b600080fd5b600080fd5b6000601f19601f8301169050919050565b7f4e487b7100000000000000000000000000000000000000000000000000000000600052604160045260246000fd5b620002818262000236565b810181811067ffffffffffffffff82111715620002a357620002a262000247565b5b80604052505050565b6000620002b862000218565b9050620002c6828262000276565b919050565b600067ffffffffffffffff821115620002e957620002e862000247565b5b620002f48262000236565b9050602081019050919050565b60005b838110156200032157808201518184015260208101905062000304565b8381111562000331576000848401525b50505050565b60006200034e6200034884620002cb565b620002ac565b9050828152602081018484840111156200036d576200036c62000231565b5b6200037a84828562000301565b509392505050565b600082601f8301126200039a57620003996200022c565b5b8151620003ac84826020860162000337565b91505092915050565b60008060408385031215620003cf57620003ce62000222565b5b600083015167ffffffffffffffff811115620003f057620003ef62000227565b5b620003fe8582860162000382565b925050602083015167ffffffffffffffff81111562000422576200042162000227565b5b620004308582860162000382565b9150509250929050565b7f4e487b7100000000000000000000000000000000000000000000000000000000600052602260045260246000fd5b600060028204905060018216806200048257607f821691505b602082108114156200049957620004986200043a565b5b50919050565b612ec580620004af6000396000f3fe608060405234801561001057600080fd5b50600436106101215760003560e01c80638da5cb5b116100ad578063c87b56dd11610071578063c87b56dd14610306578063e985e9c514610336578063eb22ed3214610366578063f2fde38b14610382578063f59dfdfb1461039e57610121565b80638da5cb5b1461026257806395d89b4114610280578063a22cb4651461029e578063b88d4fde146102ba578063c1e03728146102d657610121565b806323b872dd116100f457806323b872dd146101c057806342842e0e146101dc5780636352211e146101f857806370a0823114610228578063715018a61461025857610121565b806301ffc9a71461012657806306fdde0314610156578063081812fc14610174578063095ea7b3146101a4575b600080fd5b610140600480360381019061013b9190611c30565b6103ba565b60405161014d9190611c78565b60405180910390f35b61015e61049c565b60405161016b9190611d2c565b60405180910390f35b61018e60048036038101906101899190611d84565b61052e565b60405161019b9190611df2565b60405180910390f35b6101be60048036038101906101b99190611e39565b6105b3565b005b6101da60048036038101906101d59190611e79565b6106cb565b005b6101f660048036038101906101f19190611e79565b61072b565b005b610212600480360381019061020d9190611d84565b61074b565b60405161021f9190611df2565b60405180910390f35b610242600480360381019061023d9190611ecc565b6107fd565b60405161024f9190611f08565b60405180910390f35b6102606108b5565b005b61026a61093d565b6040516102779190611df2565b60405180910390f35b610288610967565b6040516102959190611d2c565b60405180910390f35b6102b860048036038101906102b39190611f4f565b6109f9565b005b6102d460048036038101906102cf91906120c4565b610a0f565b005b6102f060048036038101906102eb9190611d84565b610a71565b6040516102fd91906121c7565b60405180910390f35b610320600480360381019061031b9190611d84565b610aec565b60405161032d9190611d2c565b60405180910390f35b610350600480360381019061034b91906121e2565b610b93565b60405161035d9190611c78565b60405180910390f35b610380600480360381019061037b919061224e565b610c27565b005b61039c60048036038101906103979190611ecc565b610d61565b005b6103b860048036038101906103b39190611d84565b610e59565b005b60007f80ac58cd000000000000000000000000000000000000000000000000000000007bffffffffffffffffffffffffffffffffffffffffffffffffffffffff1916827bffffffffffffffffffffffffffffffffffffffffffffffffffffffff1916148061048557507f5b5e139f000000000000000000000000000000000000000000000000000000007bffffffffffffffffffffffffffffffffffffffffffffffffffffffff1916827bffffffffffffffffffffffffffffffffffffffffffffffffffffffff1916145b80610495575061049482610e9e565b5b9050919050565b6060600080546104ab906122d0565b80601f01602080910402602001604051908101604052809291908181526020018280546104d7906122d0565b80156105245780601f106104f957610100808354040283529160200191610524565b820191906000526020600020905b81548152906001019060200180831161050757829003601f168201915b5050505050905090565b600061053982610f08565b610578576040517f08c379a000000000000000000000000000000000000000000000000000000000815260040161056f90612374565b60405180910390fd5b6004600083815260200190815260200160002060009054906101000a900473ffffffffffffffffffffffffffffffffffffffff169050919050565b60006105be8261074b565b90508073ffffffffffffffffffffffffffffffffffffffff168373ffffffffffffffffffffffffffffffffffffffff16141561062f576040517f08c379a000000000000000000000000000000000000000000000000000000000815260040161062690612406565b60405180910390fd5b8073ffffffffffffffffffffffffffffffffffffffff1661064e610f74565b73ffffffffffffffffffffffffffffffffffffffff16148061067d575061067c81610677610f74565b610b93565b5b6106bc576040517f08c379a00000000000000000000000000000000000000000000000000000000081526004016106b390612498565b60405180910390fd5b6106c68383610f7c565b505050565b6106dc6106d6610f74565b82611035565b61071b576040517f08c379a00000000000000000000000000000000000000000000000000000000081526004016107129061252a565b60405180910390fd5b610726838383611113565b505050565b61074683838360405180602001604052806000815250610a0f565b505050565b6000806002600084815260200190815260200160002060009054906101000a900473ffffffffffffffffffffffffffffffffffffffff169050600073ffffffffffffffffffffffffffffffffffffffff168173ffffffffffffffffffffffffffffffffffffffff1614156107f4576040517f08c379a00000000000000000000000000000000000000000000000000000000081526004016107eb906125bc565b60405180910390fd5b80915050919050565b60008073ffffffffffffffffffffffffffffffffffffffff168273ffffffffffffffffffffffffffffffffffffffff16141561086e576040517f08c379a00000000000000000000000000000000000000000000000000000000081526004016108659061264e565b60405180910390fd5b600360008373ffffffffffffffffffffffffffffffffffffffff1673ffffffffffffffffffffffffffffffffffffffff168152602001908152602001600020549050919050565b6108bd610f74565b73ffffffffffffffffffffffffffffffffffffffff166108db61093d565b73ffffffffffffffffffffffffffffffffffffffff1614610931576040517f08c379a0000000000000000000000000000000000000000000000000000000008152600401610928906126ba565b60405180910390fd5b61093b600061136f565b565b6000600660009054906101000a900473ffffffffffffffffffffffffffffffffffffffff16905090565b606060018054610976906122d0565b80601f01602080910402602001604051908101604052809291908181526020018280546109a2906122d0565b80156109ef5780601f106109c4576101008083540402835291602001916109ef565b820191906000526020600020905b8154815290600101906020018083116109d257829003601f168201915b5050505050905090565b610a0b610a04610f74565b8383611435565b5050565b610a20610a1a610f74565b83611035565b610a5f576040517f08c379a0000000000000000000000000000000000000000000000000000000008152600401610a569061252a565b60405180910390fd5b610a6b848484846115a2565b50505050565b610a79611b96565b600860008381526020019081526020016000206040518060800160405290816000820160009054906101000a900460ff1660ff1660ff1681526020016000820160019054906101000a900460ff1660ff1660ff168152602001600182015481526020016002820154815250509050919050565b6060610af782610f08565b610b36576040517f08c379a0000000000000000000000000000000000000000000000000000000008152600401610b2d9061274c565b60405180910390fd5b6000610b406115fe565b90506000815111610b605760405180602001604052806000815250610b8b565b80610b6a84611615565b604051602001610b7b9291906127a8565b6040516020818303038152906040525b915050919050565b6000600560008473ffffffffffffffffffffffffffffffffffffffff1673ffffffffffffffffffffffffffffffffffffffff16815260200190815260200160002060008373ffffffffffffffffffffffffffffffffffffffff1673ffffffffffffffffffffffffffffffffffffffff16815260200190815260200160002060009054906101000a900460ff16905092915050565b610c2f610f74565b73ffffffffffffffffffffffffffffffffffffffff16610c4d61093d565b73ffffffffffffffffffffffffffffffffffffffff1614610ca3576040517f08c379a0000000000000000000000000000000000000000000000000000000008152600401610c9a906126ba565b60405180910390fd5b60405180608001604052808460ff1681526020018360ff1681526020014281526020018281525060086000600754815260200190815260200160002060008201518160000160006101000a81548160ff021916908360ff16021790555060208201518160000160016101000a81548160ff021916908360ff1602179055506040820151816001015560608201518160020155905050610d4433600754611776565b60076000815480929190610d57906127fb565b9190505550505050565b610d69610f74565b73ffffffffffffffffffffffffffffffffffffffff16610d8761093d565b73ffffffffffffffffffffffffffffffffffffffff1614610ddd576040517f08c379a0000000000000000000000000000000000000000000000000000000008152600401610dd4906126ba565b60405180910390fd5b600073ffffffffffffffffffffffffffffffffffffffff168173ffffffffffffffffffffffffffffffffffffffff161415610e4d576040517f08c379a0000000000000000000000000000000000000000000000000000000008152600401610e44906128b6565b60405180910390fd5b610e568161136f565b50565b600060086000600754815260200190815260200160002090504281600201548260010154610e8791906128d6565b11610e9157600080fd5b4281600101819055505050565b60007f01ffc9a7000000000000000000000000000000000000000000000000000000007bffffffffffffffffffffffffffffffffffffffffffffffffffffffff1916827bffffffffffffffffffffffffffffffffffffffffffffffffffffffff1916149050919050565b60008073ffffffffffffffffffffffffffffffffffffffff166002600084815260200190815260200160002060009054906101000a900473ffffffffffffffffffffffffffffffffffffffff1673ffffffffffffffffffffffffffffffffffffffff1614159050919050565b600033905090565b816004600083815260200190815260200160002060006101000a81548173ffffffffffffffffffffffffffffffffffffffff021916908373ffffffffffffffffffffffffffffffffffffffff160217905550808273ffffffffffffffffffffffffffffffffffffffff16610fef8361074b565b73ffffffffffffffffffffffffffffffffffffffff167f8c5be1e5ebec7d5bd14f71427d1e84f3dd0314c0f7b2291e5b200ac8c7c3b92560405160405180910390a45050565b600061104082610f08565b61107f576040517f08c379a00000000000000000000000000000000000000000000000000000000081526004016110769061299e565b60405180910390fd5b600061108a8361074b565b90508073ffffffffffffffffffffffffffffffffffffffff168473ffffffffffffffffffffffffffffffffffffffff1614806110f957508373ffffffffffffffffffffffffffffffffffffffff166110e18461052e565b73ffffffffffffffffffffffffffffffffffffffff16145b8061110a57506111098185610b93565b5b91505092915050565b8273ffffffffffffffffffffffffffffffffffffffff166111338261074b565b73ffffffffffffffffffffffffffffffffffffffff1614611189576040517f08c379a000000000000000000000000000000000000000000000000000000000815260040161118090612a30565b60405180910390fd5b600073ffffffffffffffffffffffffffffffffffffffff168273ffffffffffffffffffffffffffffffffffffffff1614156111f9576040517f08c379a00000000000000000000000000000000000000000000000000000000081526004016111f090612ac2565b60405180910390fd5b611204838383611794565b61120f600082610f7c565b6001600360008573ffffffffffffffffffffffffffffffffffffffff1673ffffffffffffffffffffffffffffffffffffffff168152602001908152602001600020600082825461125f9190612ae2565b925050819055506001600360008473ffffffffffffffffffffffffffffffffffffffff1673ffffffffffffffffffffffffffffffffffffffff16815260200190815260200160002060008282546112b691906128d6565b92505081905550816002600083815260200190815260200160002060006101000a81548173ffffffffffffffffffffffffffffffffffffffff021916908373ffffffffffffffffffffffffffffffffffffffff160217905550808273ffffffffffffffffffffffffffffffffffffffff168473ffffffffffffffffffffffffffffffffffffffff167fddf252ad1be2c89b69c2b068fc378daa952ba7f163c4a11628f55a4df523b3ef60405160405180910390a4505050565b6000600660009054906101000a900473ffffffffffffffffffffffffffffffffffffffff16905081600660006101000a81548173ffffffffffffffffffffffffffffffffffffffff021916908373ffffffffffffffffffffffffffffffffffffffff1602179055508173ffffffffffffffffffffffffffffffffffffffff168173ffffffffffffffffffffffffffffffffffffffff167f8be0079c531659141344cd1fd0a4f28419497f9722a3daafe3b4186f6b6457e060405160405180910390a35050565b8173ffffffffffffffffffffffffffffffffffffffff168373ffffffffffffffffffffffffffffffffffffffff1614156114a4576040517f08c379a000000000000000000000000000000000000000000000000000000000815260040161149b90612b62565b60405180910390fd5b80600560008573ffffffffffffffffffffffffffffffffffffffff1673ffffffffffffffffffffffffffffffffffffffff16815260200190815260200160002060008473ffffffffffffffffffffffffffffffffffffffff1673ffffffffffffffffffffffffffffffffffffffff16815260200190815260200160002060006101000a81548160ff0219169083151502179055508173ffffffffffffffffffffffffffffffffffffffff168373ffffffffffffffffffffffffffffffffffffffff167f17307eab39ab6107e8899845ad3d59bd9653f200f220920489ca2b5937696c31836040516115959190611c78565b60405180910390a3505050565b6115ad848484611113565b6115b9848484846117d2565b6115f8576040517f08c379a00000000000000000000000000000000000000000000000000000000081526004016115ef90612bf4565b60405180910390fd5b50505050565b606060405180602001604052806000815250905090565b6060600082141561165d576040518060400160405280600181526020017f30000000000000000000000000000000000000000000000000000000000000008152509050611771565b600082905060005b6000821461168f578080611678906127fb565b915050600a826116889190612c43565b9150611665565b60008167ffffffffffffffff8111156116ab576116aa611f99565b5b6040519080825280601f01601f1916602001820160405280156116dd5781602001600182028036833780820191505090505b5090505b6000851461176a576001826116f69190612ae2565b9150600a856117059190612c74565b603061171191906128d6565b60f81b81838151811061172757611726612ca5565b5b60200101907effffffffffffffffffffffffffffffffffffffffffffffffffffffffffffff1916908160001a905350600a856117639190612c43565b94506116e1565b8093505050505b919050565b61179082826040518060200160405280600081525061195a565b5050565b6000600860006007548152602001908152602001600020905042816002015482600101546117c291906128d6565b116117cc57600080fd5b50505050565b60006117f38473ffffffffffffffffffffffffffffffffffffffff166119b5565b1561194d578373ffffffffffffffffffffffffffffffffffffffff1663150b7a0261181c610f74565b8786866040518563ffffffff1660e01b815260040161183e9493929190612d29565b6020604051808303816000875af192505050801561187a57506040513d601f19601f820116820180604052508101906118779190612d8a565b60015b6118fd573d80600081146118aa576040519150601f19603f3d011682016040523d82523d6000602084013e6118af565b606091505b506000815114156118f5576040517f08c379a00000000000000000000000000000000000000000000000000000000081526004016118ec90612bf4565b60405180910390fd5b805181602001fd5b63150b7a0260e01b7bffffffffffffffffffffffffffffffffffffffffffffffffffffffff1916817bffffffffffffffffffffffffffffffffffffffffffffffffffffffff191614915050611952565b600190505b949350505050565b61196483836119c8565b61197160008484846117d2565b6119b0576040517f08c379a00000000000000000000000000000000000000000000000000000000081526004016119a790612bf4565b60405180910390fd5b505050565b600080823b905060008111915050919050565b600073ffffffffffffffffffffffffffffffffffffffff168273ffffffffffffffffffffffffffffffffffffffff161415611a38576040517f08c379a0000000000000000000000000000000000000000000000000000000008152600401611a2f90612e03565b60405180910390fd5b611a4181610f08565b15611a81576040517f08c379a0000000000000000000000000000000000000000000000000000000008152600401611a7890612e6f565b60405180910390fd5b611a8d60008383611794565b6001600360008473ffffffffffffffffffffffffffffffffffffffff1673ffffffffffffffffffffffffffffffffffffffff1681526020019081526020016000206000828254611add91906128d6565b92505081905550816002600083815260200190815260200160002060006101000a81548173ffffffffffffffffffffffffffffffffffffffff021916908373ffffffffffffffffffffffffffffffffffffffff160217905550808273ffffffffffffffffffffffffffffffffffffffff16600073ffffffffffffffffffffffffffffffffffffffff167fddf252ad1be2c89b69c2b068fc378daa952ba7f163c4a11628f55a4df523b3ef60405160405180910390a45050565b6040518060800160405280600060ff168152602001600060ff16815260200160008152602001600081525090565b6000604051905090565b600080fd5b600080fd5b60007fffffffff0000000000000000000000000000000000000000000000000000000082169050919050565b611c0d81611bd8565b8114611c1857600080fd5b50565b600081359050611c2a81611c04565b92915050565b600060208284031215611c4657611c45611bce565b5b6000611c5484828501611c1b565b91505092915050565b60008115159050919050565b611c7281611c5d565b82525050565b6000602082019050611c8d6000830184611c69565b92915050565b600081519050919050565b600082825260208201905092915050565b60005b83811015611ccd578082015181840152602081019050611cb2565b83811115611cdc576000848401525b50505050565b6000601f19601f8301169050919050565b6000611cfe82611c93565b611d088185611c9e565b9350611d18818560208601611caf565b611d2181611ce2565b840191505092915050565b60006020820190508181036000830152611d468184611cf3565b905092915050565b6000819050919050565b611d6181611d4e565b8114611d6c57600080fd5b50565b600081359050611d7e81611d58565b92915050565b600060208284031215611d9a57611d99611bce565b5b6000611da884828501611d6f565b91505092915050565b600073ffffffffffffffffffffffffffffffffffffffff82169050919050565b6000611ddc82611db1565b9050919050565b611dec81611dd1565b82525050565b6000602082019050611e076000830184611de3565b92915050565b611e1681611dd1565b8114611e2157600080fd5b50565b600081359050611e3381611e0d565b92915050565b60008060408385031215611e5057611e4f611bce565b5b6000611e5e85828601611e24565b9250506020611e6f85828601611d6f565b9150509250929050565b600080600060608486031215611e9257611e91611bce565b5b6000611ea086828701611e24565b9350506020611eb186828701611e24565b9250506040611ec286828701611d6f565b9150509250925092565b600060208284031215611ee257611ee1611bce565b5b6000611ef084828501611e24565b91505092915050565b611f0281611d4e565b82525050565b6000602082019050611f1d6000830184611ef9565b92915050565b611f2c81611c5d565b8114611f3757600080fd5b50565b600081359050611f4981611f23565b92915050565b60008060408385031215611f6657611f65611bce565b5b6000611f7485828601611e24565b9250506020611f8585828601611f3a565b9150509250929050565b600080fd5b600080fd5b7f4e487b7100000000000000000000000000000000000000000000000000000000600052604160045260246000fd5b611fd182611ce2565b810181811067ffffffffffffffff82111715611ff057611fef611f99565b5b80604052505050565b6000612003611bc4565b905061200f8282611fc8565b919050565b600067ffffffffffffffff82111561202f5761202e611f99565b5b61203882611ce2565b9050602081019050919050565b82818337600083830152505050565b600061206761206284612014565b611ff9565b90508281526020810184848401111561208357612082611f94565b5b61208e848285612045565b509392505050565b600082601f8301126120ab576120aa611f8f565b5b81356120bb848260208601612054565b91505092915050565b600080600080608085870312156120de576120dd611bce565b5b60006120ec87828801611e24565b94505060206120fd87828801611e24565b935050604061210e87828801611d6f565b925050606085013567ffffffffffffffff81111561212f5761212e611bd3565b5b61213b87828801612096565b91505092959194509250565b600060ff82169050919050565b61215d81612147565b82525050565b61216c81611d4e565b82525050565b6080820160008201516121886000850182612154565b50602082015161219b6020850182612154565b5060408201516121ae6040850182612163565b5060608201516121c16060850182612163565b50505050565b60006080820190506121dc6000830184612172565b92915050565b600080604083850312156121f9576121f8611bce565b5b600061220785828601611e24565b925050602061221885828601611e24565b9150509250929050565b61222b81612147565b811461223657600080fd5b50565b60008135905061224881612222565b92915050565b60008060006060848603121561226757612266611bce565b5b600061227586828701612239565b935050602061228686828701612239565b925050604061229786828701611d6f565b9150509250925092565b7f4e487b7100000000000000000000000000000000000000000000000000000000600052602260045260246000fd5b600060028204905060018216806122e857607f821691505b602082108114156122fc576122fb6122a1565b5b50919050565b7f4552433732313a20617070726f76656420717565727920666f72206e6f6e657860008201527f697374656e7420746f6b656e0000000000000000000000000000000000000000602082015250565b600061235e602c83611c9e565b915061236982612302565b604082019050919050565b6000602082019050818103600083015261238d81612351565b9050919050565b7f4552433732313a20617070726f76616c20746f2063757272656e74206f776e6560008201527f7200000000000000000000000000000000000000000000000000000000000000602082015250565b60006123f0602183611c9e565b91506123fb82612394565b604082019050919050565b6000602082019050818103600083015261241f816123e3565b9050919050565b7f4552433732313a20617070726f76652063616c6c6572206973206e6f74206f7760008201527f6e6572206e6f7220617070726f76656420666f7220616c6c0000000000000000602082015250565b6000612482603883611c9e565b915061248d82612426565b604082019050919050565b600060208201905081810360008301526124b181612475565b9050919050565b7f4552433732313a207472616e736665722063616c6c6572206973206e6f74206f60008201527f776e6572206e6f7220617070726f766564000000000000000000000000000000602082015250565b6000612514603183611c9e565b915061251f826124b8565b604082019050919050565b6000602082019050818103600083015261254381612507565b9050919050565b7f4552433732313a206f776e657220717565727920666f72206e6f6e657869737460008201527f656e7420746f6b656e0000000000000000000000000000000000000000000000602082015250565b60006125a6602983611c9e565b91506125b18261254a565b604082019050919050565b600060208201905081810360008301526125d581612599565b9050919050565b7f4552433732313a2062616c616e636520717565727920666f7220746865207a6560008201527f726f206164647265737300000000000000000000000000000000000000000000602082015250565b6000612638602a83611c9e565b9150612643826125dc565b604082019050919050565b600060208201905081810360008301526126678161262b565b9050919050565b7f4f776e61626c653a2063616c6c6572206973206e6f7420746865206f776e6572600082015250565b60006126a4602083611c9e565b91506126af8261266e565b602082019050919050565b600060208201905081810360008301526126d381612697565b9050919050565b7f4552433732314d657461646174613a2055524920717565727920666f72206e6f60008201527f6e6578697374656e7420746f6b656e0000000000000000000000000000000000602082015250565b6000612736602f83611c9e565b9150612741826126da565b604082019050919050565b6000602082019050818103600083015261276581612729565b9050919050565b600081905092915050565b600061278282611c93565b61278c818561276c565b935061279c818560208601611caf565b80840191505092915050565b60006127b48285612777565b91506127c08284612777565b91508190509392505050565b7f4e487b7100000000000000000000000000000000000000000000000000000000600052601160045260246000fd5b600061280682611d4e565b91507fffffffffffffffffffffffffffffffffffffffffffffffffffffffffffffffff821415612839576128386127cc565b5b600182019050919050565b7f4f776e61626c653a206e6577206f776e657220697320746865207a65726f206160008201527f6464726573730000000000000000000000000000000000000000000000000000602082015250565b60006128a0602683611c9e565b91506128ab82612844565b604082019050919050565b600060208201905081810360008301526128cf81612893565b9050919050565b60006128e182611d4e565b91506128ec83611d4e565b9250827fffffffffffffffffffffffffffffffffffffffffffffffffffffffffffffffff03821115612921576129206127cc565b5b828201905092915050565b7f4552433732313a206f70657261746f7220717565727920666f72206e6f6e657860008201527f697374656e7420746f6b656e0000000000000000000000000000000000000000602082015250565b6000612988602c83611c9e565b91506129938261292c565b604082019050919050565b600060208201905081810360008301526129b78161297b565b9050919050565b7f4552433732313a207472616e73666572206f6620746f6b656e2074686174206960008201527f73206e6f74206f776e0000000000000000000000000000000000000000000000602082015250565b6000612a1a602983611c9e565b9150612a25826129be565b604082019050919050565b60006020820190508181036000830152612a4981612a0d565b9050919050565b7f4552433732313a207472616e7366657220746f20746865207a65726f2061646460008201527f7265737300000000000000000000000000000000000000000000000000000000602082015250565b6000612aac602483611c9e565b9150612ab782612a50565b604082019050919050565b60006020820190508181036000830152612adb81612a9f565b9050919050565b6000612aed82611d4e565b9150612af883611d4e565b925082821015612b0b57612b0a6127cc565b5b828203905092915050565b7f4552433732313a20617070726f766520746f2063616c6c657200000000000000600082015250565b6000612b4c601983611c9e565b9150612b5782612b16565b602082019050919050565b60006020820190508181036000830152612b7b81612b3f565b9050919050565b7f4552433732313a207472616e7366657220746f206e6f6e20455243373231526560008201527f63656976657220696d706c656d656e7465720000000000000000000000000000602082015250565b6000612bde603283611c9e565b9150612be982612b82565b604082019050919050565b60006020820190508181036000830152612c0d81612bd1565b9050919050565b7f4e487b7100000000000000000000000000000000000000000000000000000000600052601260045260246000fd5b6000612c4e82611d4e565b9150612c5983611d4e565b925082612c6957612c68612c14565b5b828204905092915050565b6000612c7f82611d4e565b9150612c8a83611d4e565b925082612c9a57612c99612c14565b5b828206905092915050565b7f4e487b7100000000000000000000000000000000000000000000000000000000600052603260045260246000fd5b600081519050919050565b600082825260208201905092915050565b6000612cfb82612cd4565b612d058185612cdf565b9350612d15818560208601611caf565b612d1e81611ce2565b840191505092915050565b6000608082019050612d3e6000830187611de3565b612d4b6020830186611de3565b612d586040830185611ef9565b8181036060830152612d6a8184612cf0565b905095945050505050565b600081519050612d8481611c04565b92915050565b600060208284031215612da057612d9f611bce565b5b6000612dae84828501612d75565b91505092915050565b7f4552433732313a206d696e7420746f20746865207a65726f2061646472657373600082015250565b6000612ded602083611c9e565b9150612df882612db7565b602082019050919050565b60006020820190508181036000830152612e1c81612de0565b9050919050565b7f4552433732313a20746f6b656e20616c7265616479206d696e74656400000000600082015250565b6000612e59601c83611c9e565b9150612e6482612e23565b602082019050919050565b60006020820190508181036000830152612e8881612e4c565b905091905056fea264697066735822122043cecc19e7b83c104428b5c6ed4c78d3fe54de212109c6b415f9e8f7ab29711764736f6c634300080a0033",
    "immutableReferences": {},
    "source": "pragma solidity 0.8.10;\n\nimport \"../node_modules/@openzeppelin/contracts/token/ERC721/ERC721.sol\";\nimport \"../node_modules/@openzeppelin/contracts/access/Ownable.sol\";\n\ncontract Token is ERC721, Ownable {\n\n    struct Pet {\n        uint8 damage;\n        uint8 magic;\n        uint256 lastMeal;\n        uint256 endurance;\n    }\n\n    uint256 nextId = 0;\n\n    mapping (uint256 => Pet) private _tokenDetails; \n\n    constructor(string memory name, string memory symbol) ERC721(name, symbol) {\n\n    }\n\n    function mint(uint8 damage, uint8 magic, uint256 endurance) public onlyOwner {\n        _tokenDetails[nextId] = Pet(damage, magic, block.timestamp, endurance);\n        _safeMint(msg.sender, nextId);\n\n        nextId++;\n    }\n\n    function feed(uint256 tokenId) public {\n        Pet storage pet = _tokenDetails[nextId];\n        require(pet.lastMeal + pet.endurance > block.timestamp);\n        pet.lastMeal = block.timestamp;\n    }\n    \n    function getTokenDetails(uint256 tokenId) public view returns (Pet memory) {\n        return _tokenDetails[tokenId];\n    }\n\n    function _beforeTokenTransfer( \n        address from,\n        address to,\n        uint256 tokenId\n    ) internal override {\n        Pet storage pet = _tokenDetails[nextId];\n        require(pet.lastMeal + pet.endurance > block.timestamp);\n\n    }\n\n}\n\n",
    "sourcePath": "/Users/ilkerulusoy/git/git_nft/game/contracts/Token.sol",
    "compiler": {
        "name": "solc",
        "version": "0.8.10+commit.fc410830.Emscripten.clang"
    },
    "schemaVersion": "3.4.3",
    "updatedAt": "2021-12-20T21:31:58.721Z",
    "networkType": "ethereum",
    "devdoc": {
        "kind": "dev",
        "methods": {
            "approve(address,uint256)": {
                "details": "See {IERC721-approve}."
            },
            "balanceOf(address)": {
                "details": "See {IERC721-balanceOf}."
            },
            "getApproved(uint256)": {
                "details": "See {IERC721-getApproved}."
            },
            "isApprovedForAll(address,address)": {
                "details": "See {IERC721-isApprovedForAll}."
            },
            "name()": {
                "details": "See {IERC721Metadata-name}."
            },
            "owner()": {
                "details": "Returns the address of the current owner."
            },
            "ownerOf(uint256)": {
                "details": "See {IERC721-ownerOf}."
            },
            "renounceOwnership()": {
                "details": "Leaves the contract without owner. It will not be possible to call `onlyOwner` functions anymore. Can only be called by the current owner. NOTE: Renouncing ownership will leave the contract without an owner, thereby removing any functionality that is only available to the owner."
            },
            "safeTransferFrom(address,address,uint256)": {
                "details": "See {IERC721-safeTransferFrom}."
            },
            "safeTransferFrom(address,address,uint256,bytes)": {
                "details": "See {IERC721-safeTransferFrom}."
            },
            "setApprovalForAll(address,bool)": {
                "details": "See {IERC721-setApprovalForAll}."
            },
            "supportsInterface(bytes4)": {
                "details": "See {IERC165-supportsInterface}."
            },
            "symbol()": {
                "details": "See {IERC721Metadata-symbol}."
            },
            "tokenURI(uint256)": {
                "details": "See {IERC721Metadata-tokenURI}."
            },
            "transferFrom(address,address,uint256)": {
                "details": "See {IERC721-transferFrom}."
            },
            "transferOwnership(address)": {
                "details": "Transfers ownership of the contract to a new account (`newOwner`). Can only be called by the current owner."
            }
        },
        "version": 1
    },
    "userdoc": {
        "kind": "user",
        "methods": {},
        "version": 1
    }
}